{
  "_format": "hh-sol-artifact-1",
  "contractName": "MyToken",
  "sourceName": "contracts/NFT.sol",
  "abi": [
    {
      "inputs": [
        {
          "internalType": "string",
          "name": "collectionName",
          "type": "string"
        },
        {
          "internalType": "uint256",
          "name": "percent",
          "type": "uint256"
        }
      ],
      "stateMutability": "nonpayable",
      "type": "constructor"
    },
    {
      "anonymous": false,
      "inputs": [
        {
          "indexed": true,
          "internalType": "address",
          "name": "account",
          "type": "address"
        },
        {
          "indexed": true,
          "internalType": "address",
          "name": "operator",
          "type": "address"
        },
        {
          "indexed": false,
          "internalType": "bool",
          "name": "approved",
          "type": "bool"
        }
      ],
      "name": "ApprovalForAll",
      "type": "event"
    },
    {
      "anonymous": false,
      "inputs": [
        {
          "indexed": true,
          "internalType": "address",
          "name": "previousOwner",
          "type": "address"
        },
        {
          "indexed": true,
          "internalType": "address",
          "name": "newOwner",
          "type": "address"
        }
      ],
      "name": "OwnershipTransferred",
      "type": "event"
    },
    {
      "anonymous": false,
      "inputs": [
        {
          "indexed": true,
          "internalType": "address",
          "name": "operator",
          "type": "address"
        },
        {
          "indexed": true,
          "internalType": "address",
          "name": "from",
          "type": "address"
        },
        {
          "indexed": true,
          "internalType": "address",
          "name": "to",
          "type": "address"
        },
        {
          "indexed": false,
          "internalType": "uint256[]",
          "name": "ids",
          "type": "uint256[]"
        },
        {
          "indexed": false,
          "internalType": "uint256[]",
          "name": "values",
          "type": "uint256[]"
        }
      ],
      "name": "TransferBatch",
      "type": "event"
    },
    {
      "anonymous": false,
      "inputs": [
        {
          "indexed": true,
          "internalType": "address",
          "name": "operator",
          "type": "address"
        },
        {
          "indexed": true,
          "internalType": "address",
          "name": "from",
          "type": "address"
        },
        {
          "indexed": true,
          "internalType": "address",
          "name": "to",
          "type": "address"
        },
        {
          "indexed": false,
          "internalType": "uint256",
          "name": "id",
          "type": "uint256"
        },
        {
          "indexed": false,
          "internalType": "uint256",
          "name": "value",
          "type": "uint256"
        }
      ],
      "name": "TransferSingle",
      "type": "event"
    },
    {
      "anonymous": false,
      "inputs": [
        {
          "indexed": false,
          "internalType": "string",
          "name": "value",
          "type": "string"
        },
        {
          "indexed": true,
          "internalType": "uint256",
          "name": "id",
          "type": "uint256"
        }
      ],
      "name": "URI",
      "type": "event"
    },
    {
      "anonymous": false,
      "inputs": [
        {
          "indexed": false,
          "internalType": "address",
          "name": "minter",
          "type": "address"
        },
        {
          "indexed": false,
          "internalType": "string",
          "name": "tokenName",
          "type": "string"
        },
        {
          "indexed": false,
          "internalType": "uint256",
          "name": "tokenID",
          "type": "uint256"
        },
        {
          "indexed": false,
          "internalType": "uint256",
          "name": "cost",
          "type": "uint256"
        },
        {
          "indexed": false,
          "internalType": "uint256",
          "name": "totalSupply",
          "type": "uint256"
        }
      ],
      "name": "onMint",
      "type": "event"
    },
    {
      "inputs": [],
      "name": "_tokenIds",
      "outputs": [
        {
          "internalType": "uint256",
          "name": "_value",
          "type": "uint256"
        }
      ],
      "stateMutability": "view",
      "type": "function"
    },
    {
      "inputs": [
        {
          "internalType": "address",
          "name": "account",
          "type": "address"
        },
        {
          "internalType": "uint256",
          "name": "id",
          "type": "uint256"
        }
      ],
      "name": "balanceOf",
      "outputs": [
        {
          "internalType": "uint256",
          "name": "",
          "type": "uint256"
        }
      ],
      "stateMutability": "view",
      "type": "function"
    },
    {
      "inputs": [
        {
          "internalType": "address[]",
          "name": "accounts",
          "type": "address[]"
        },
        {
          "internalType": "uint256[]",
          "name": "ids",
          "type": "uint256[]"
        }
      ],
      "name": "balanceOfBatch",
      "outputs": [
        {
          "internalType": "uint256[]",
          "name": "",
          "type": "uint256[]"
        }
      ],
      "stateMutability": "view",
      "type": "function"
    },
    {
      "inputs": [
        {
          "internalType": "uint256",
          "name": "_tokenId",
          "type": "uint256"
        },
        {
          "internalType": "uint256",
          "name": "_amount",
          "type": "uint256"
        }
      ],
      "name": "buyTokens",
      "outputs": [
        {
          "internalType": "bool",
          "name": "",
          "type": "bool"
        }
      ],
      "stateMutability": "payable",
      "type": "function"
    },
    {
      "inputs": [
        {
          "internalType": "address",
          "name": "",
          "type": "address"
        },
        {
          "internalType": "uint256",
          "name": "",
          "type": "uint256"
        }
      ],
      "name": "buyerToTokens",
      "outputs": [
        {
          "internalType": "uint256",
          "name": "id",
          "type": "uint256"
        },
        {
          "components": [
            {
              "internalType": "address",
              "name": "creatorAddress",
              "type": "address"
            },
            {
              "internalType": "string",
              "name": "name",
              "type": "string"
            },
            {
              "internalType": "uint256",
              "name": "registeredDate",
              "type": "uint256"
            },
            {
              "internalType": "bool",
              "name": "registrationStatus",
              "type": "bool"
            }
          ],
          "internalType": "struct MyToken.Creator",
          "name": "creator",
          "type": "tuple"
        },
        {
          "internalType": "string",
          "name": "tokenName",
          "type": "string"
        },
        {
          "internalType": "string",
          "name": "mediaUrl",
          "type": "string"
        },
        {
          "internalType": "uint256",
          "name": "cost",
          "type": "uint256"
        },
        {
          "internalType": "uint256",
          "name": "amountAvailable",
          "type": "uint256"
        },
        {
          "internalType": "uint256",
          "name": "totalSupply",
          "type": "uint256"
        },
        {
          "internalType": "uint256",
          "name": "createdTime",
          "type": "uint256"
        }
      ],
      "stateMutability": "view",
      "type": "function"
    },
    {
      "inputs": [],
      "name": "contractName",
      "outputs": [
        {
          "internalType": "string",
          "name": "",
          "type": "string"
        }
      ],
      "stateMutability": "view",
      "type": "function"
    },
    {
      "inputs": [
        {
          "internalType": "address",
          "name": "",
          "type": "address"
        },
        {
          "internalType": "uint256",
          "name": "",
          "type": "uint256"
        }
      ],
      "name": "creatorTokens",
      "outputs": [
        {
          "internalType": "uint256",
          "name": "id",
          "type": "uint256"
        },
        {
          "components": [
            {
              "internalType": "address",
              "name": "creatorAddress",
              "type": "address"
            },
            {
              "internalType": "string",
              "name": "name",
              "type": "string"
            },
            {
              "internalType": "uint256",
              "name": "registeredDate",
              "type": "uint256"
            },
            {
              "internalType": "bool",
              "name": "registrationStatus",
              "type": "bool"
            }
          ],
          "internalType": "struct MyToken.Creator",
          "name": "creator",
          "type": "tuple"
        },
        {
          "internalType": "string",
          "name": "tokenName",
          "type": "string"
        },
        {
          "internalType": "string",
          "name": "mediaUrl",
          "type": "string"
        },
        {
          "internalType": "uint256",
          "name": "cost",
          "type": "uint256"
        },
        {
          "internalType": "uint256",
          "name": "amountAvailable",
          "type": "uint256"
        },
        {
          "internalType": "uint256",
          "name": "totalSupply",
          "type": "uint256"
        },
        {
          "internalType": "uint256",
          "name": "createdTime",
          "type": "uint256"
        }
      ],
      "stateMutability": "view",
      "type": "function"
    },
    {
      "inputs": [],
      "name": "fetchAvailableNFTs",
      "outputs": [
        {
          "components": [
            {
              "internalType": "uint256",
              "name": "id",
              "type": "uint256"
            },
            {
              "components": [
                {
                  "internalType": "address",
                  "name": "creatorAddress",
                  "type": "address"
                },
                {
                  "internalType": "string",
                  "name": "name",
                  "type": "string"
                },
                {
                  "internalType": "uint256",
                  "name": "registeredDate",
                  "type": "uint256"
                },
                {
                  "internalType": "bool",
                  "name": "registrationStatus",
                  "type": "bool"
                }
              ],
              "internalType": "struct MyToken.Creator",
              "name": "creator",
              "type": "tuple"
            },
            {
              "internalType": "string",
              "name": "tokenName",
              "type": "string"
            },
            {
              "internalType": "string",
              "name": "mediaUrl",
              "type": "string"
            },
            {
              "internalType": "uint256",
              "name": "cost",
              "type": "uint256"
            },
            {
              "internalType": "uint256",
              "name": "amountAvailable",
              "type": "uint256"
            },
            {
              "internalType": "uint256",
              "name": "totalSupply",
              "type": "uint256"
            },
            {
              "internalType": "uint256",
              "name": "createdTime",
              "type": "uint256"
            }
          ],
          "internalType": "struct MyToken.Token[]",
          "name": "itemList",
          "type": "tuple[]"
        }
      ],
      "stateMutability": "view",
      "type": "function"
    },
    {
      "inputs": [],
      "name": "fetchBoughtNFTs",
      "outputs": [
        {
          "components": [
            {
              "internalType": "uint256",
              "name": "id",
              "type": "uint256"
            },
            {
              "components": [
                {
                  "internalType": "address",
                  "name": "creatorAddress",
                  "type": "address"
                },
                {
                  "internalType": "string",
                  "name": "name",
                  "type": "string"
                },
                {
                  "internalType": "uint256",
                  "name": "registeredDate",
                  "type": "uint256"
                },
                {
                  "internalType": "bool",
                  "name": "registrationStatus",
                  "type": "bool"
                }
              ],
              "internalType": "struct MyToken.Creator",
              "name": "creator",
              "type": "tuple"
            },
            {
              "internalType": "string",
              "name": "tokenName",
              "type": "string"
            },
            {
              "internalType": "string",
              "name": "mediaUrl",
              "type": "string"
            },
            {
              "internalType": "uint256",
              "name": "cost",
              "type": "uint256"
            },
            {
              "internalType": "uint256",
              "name": "amountAvailable",
              "type": "uint256"
            },
            {
              "internalType": "uint256",
              "name": "totalSupply",
              "type": "uint256"
            },
            {
              "internalType": "uint256",
              "name": "createdTime",
              "type": "uint256"
            }
          ],
          "internalType": "struct MyToken.Token[]",
          "name": "itemList",
          "type": "tuple[]"
        }
      ],
      "stateMutability": "view",
      "type": "function"
    },
    {
      "inputs": [],
      "name": "fetchCreatedNFTs",
      "outputs": [
        {
          "components": [
            {
              "internalType": "uint256",
              "name": "id",
              "type": "uint256"
            },
            {
              "components": [
                {
                  "internalType": "address",
                  "name": "creatorAddress",
                  "type": "address"
                },
                {
                  "internalType": "string",
                  "name": "name",
                  "type": "string"
                },
                {
                  "internalType": "uint256",
                  "name": "registeredDate",
                  "type": "uint256"
                },
                {
                  "internalType": "bool",
                  "name": "registrationStatus",
                  "type": "bool"
                }
              ],
              "internalType": "struct MyToken.Creator",
              "name": "creator",
              "type": "tuple"
            },
            {
              "internalType": "string",
              "name": "tokenName",
              "type": "string"
            },
            {
              "internalType": "string",
              "name": "mediaUrl",
              "type": "string"
            },
            {
              "internalType": "uint256",
              "name": "cost",
              "type": "uint256"
            },
            {
              "internalType": "uint256",
              "name": "amountAvailable",
              "type": "uint256"
            },
            {
              "internalType": "uint256",
              "name": "totalSupply",
              "type": "uint256"
            },
            {
              "internalType": "uint256",
              "name": "createdTime",
              "type": "uint256"
            }
          ],
          "internalType": "struct MyToken.Token[]",
          "name": "itemList",
          "type": "tuple[]"
        }
      ],
      "stateMutability": "view",
      "type": "function"
    },
    {
      "inputs": [
        {
          "internalType": "uint256",
          "name": "",
          "type": "uint256"
        }
      ],
      "name": "idToToken",
      "outputs": [
        {
          "internalType": "uint256",
          "name": "id",
          "type": "uint256"
        },
        {
          "components": [
            {
              "internalType": "address",
              "name": "creatorAddress",
              "type": "address"
            },
            {
              "internalType": "string",
              "name": "name",
              "type": "string"
            },
            {
              "internalType": "uint256",
              "name": "registeredDate",
              "type": "uint256"
            },
            {
              "internalType": "bool",
              "name": "registrationStatus",
              "type": "bool"
            }
          ],
          "internalType": "struct MyToken.Creator",
          "name": "creator",
          "type": "tuple"
        },
        {
          "internalType": "string",
          "name": "tokenName",
          "type": "string"
        },
        {
          "internalType": "string",
          "name": "mediaUrl",
          "type": "string"
        },
        {
          "internalType": "uint256",
          "name": "cost",
          "type": "uint256"
        },
        {
          "internalType": "uint256",
          "name": "amountAvailable",
          "type": "uint256"
        },
        {
          "internalType": "uint256",
          "name": "totalSupply",
          "type": "uint256"
        },
        {
          "internalType": "uint256",
          "name": "createdTime",
          "type": "uint256"
        }
      ],
      "stateMutability": "view",
      "type": "function"
    },
    {
      "inputs": [
        {
          "internalType": "address",
          "name": "account",
          "type": "address"
        },
        {
          "internalType": "address",
          "name": "operator",
          "type": "address"
        }
      ],
      "name": "isApprovedForAll",
      "outputs": [
        {
          "internalType": "bool",
          "name": "",
          "type": "bool"
        }
      ],
      "stateMutability": "view",
      "type": "function"
    },
    {
      "inputs": [
        {
          "internalType": "string",
          "name": "tokenName",
          "type": "string"
        },
        {
          "internalType": "uint256",
          "name": "cost",
          "type": "uint256"
        },
        {
          "internalType": "uint256",
          "name": "total",
          "type": "uint256"
        },
        {
          "internalType": "string",
          "name": "uri",
          "type": "string"
        },
        {
          "internalType": "string",
          "name": "mediaUrl",
          "type": "string"
        }
      ],
      "name": "mint",
      "outputs": [],
      "stateMutability": "nonpayable",
      "type": "function"
    },
    {
      "inputs": [],
      "name": "owner",
      "outputs": [
        {
          "internalType": "address",
          "name": "",
          "type": "address"
        }
      ],
      "stateMutability": "view",
      "type": "function"
    },
    {
      "inputs": [],
      "name": "pool",
      "outputs": [
        {
          "internalType": "address",
          "name": "",
          "type": "address"
        }
      ],
      "stateMutability": "view",
      "type": "function"
    },
    {
      "inputs": [
        {
          "internalType": "address",
          "name": "creatorAddress",
          "type": "address"
        },
        {
          "internalType": "string",
          "name": "name",
          "type": "string"
        }
      ],
      "name": "registerCreator",
      "outputs": [
        {
          "internalType": "bool",
          "name": "",
          "type": "bool"
        }
      ],
      "stateMutability": "nonpayable",
      "type": "function"
    },
    {
      "inputs": [
        {
          "internalType": "address",
          "name": "",
          "type": "address"
        }
      ],
      "name": "registeredCreator",
      "outputs": [
        {
          "internalType": "address",
          "name": "creatorAddress",
          "type": "address"
        },
        {
          "internalType": "string",
          "name": "name",
          "type": "string"
        },
        {
          "internalType": "uint256",
          "name": "registeredDate",
          "type": "uint256"
        },
        {
          "internalType": "bool",
          "name": "registrationStatus",
          "type": "bool"
        }
      ],
      "stateMutability": "view",
      "type": "function"
    },
    {
      "inputs": [
        {
          "internalType": "uint256",
          "name": "",
          "type": "uint256"
        }
      ],
      "name": "registeredCreators",
      "outputs": [
        {
          "internalType": "address",
          "name": "",
          "type": "address"
        }
      ],
      "stateMutability": "view",
      "type": "function"
    },
    {
      "inputs": [
        {
          "internalType": "uint256",
          "name": "",
          "type": "uint256"
        }
      ],
      "name": "registeredUsers",
      "outputs": [
        {
          "internalType": "address",
          "name": "",
          "type": "address"
        }
      ],
      "stateMutability": "view",
      "type": "function"
    },
    {
      "inputs": [],
      "name": "renounceOwnership",
      "outputs": [],
      "stateMutability": "nonpayable",
      "type": "function"
    },
    {
      "inputs": [
        {
          "internalType": "address",
          "name": "from",
          "type": "address"
        },
        {
          "internalType": "address",
          "name": "to",
          "type": "address"
        },
        {
          "internalType": "uint256[]",
          "name": "ids",
          "type": "uint256[]"
        },
        {
          "internalType": "uint256[]",
          "name": "amounts",
          "type": "uint256[]"
        },
        {
          "internalType": "bytes",
          "name": "data",
          "type": "bytes"
        }
      ],
      "name": "safeBatchTransferFrom",
      "outputs": [],
      "stateMutability": "nonpayable",
      "type": "function"
    },
    {
      "inputs": [
        {
          "internalType": "address",
          "name": "from",
          "type": "address"
        },
        {
          "internalType": "address",
          "name": "to",
          "type": "address"
        },
        {
          "internalType": "uint256",
          "name": "id",
          "type": "uint256"
        },
        {
          "internalType": "uint256",
          "name": "amount",
          "type": "uint256"
        },
        {
          "internalType": "bytes",
          "name": "data",
          "type": "bytes"
        }
      ],
      "name": "safeTransferFrom",
      "outputs": [],
      "stateMutability": "nonpayable",
      "type": "function"
    },
    {
      "inputs": [
        {
          "internalType": "address",
          "name": "operator",
          "type": "address"
        },
        {
          "internalType": "bool",
          "name": "approved",
          "type": "bool"
        }
      ],
      "name": "setApprovalForAll",
      "outputs": [],
      "stateMutability": "nonpayable",
      "type": "function"
    },
    {
      "inputs": [
        {
          "internalType": "bytes4",
          "name": "interfaceId",
          "type": "bytes4"
        }
      ],
      "name": "supportsInterface",
      "outputs": [
        {
          "internalType": "bool",
          "name": "",
          "type": "bool"
        }
      ],
      "stateMutability": "view",
      "type": "function"
    },
    {
      "inputs": [
        {
          "internalType": "uint256",
          "name": "",
          "type": "uint256"
        }
      ],
      "name": "tokensAvailable",
      "outputs": [
        {
          "internalType": "uint256",
          "name": "",
          "type": "uint256"
        }
      ],
      "stateMutability": "view",
      "type": "function"
    },
    {
      "inputs": [
        {
          "internalType": "address",
          "name": "newOwner",
          "type": "address"
        }
      ],
      "name": "transferOwnership",
      "outputs": [],
      "stateMutability": "nonpayable",
      "type": "function"
    },
    {
      "inputs": [
        {
          "internalType": "uint256",
          "name": "",
          "type": "uint256"
        }
      ],
      "name": "uri",
      "outputs": [
        {
          "internalType": "string",
          "name": "",
          "type": "string"
        }
      ],
      "stateMutability": "view",
      "type": "function"
    }
  ],
  "bytecode": "0x60806040523480156200001157600080fd5b50604051620064b1380380620064b18339818101604052810190620000379190620002fe565b816200004981620000db60201b60201c565b506200006a6200005e620000f760201b60201c565b620000ff60201b60201c565b600160048190555033600660006101000a81548173ffffffffffffffffffffffffffffffffffffffff021916908373ffffffffffffffffffffffffffffffffffffffff16021790555080600b819055508160079080519060200190620000d2929190620001c5565b505050620004ec565b8060029080519060200190620000f3929190620001c5565b5050565b600033905090565b6000600360009054906101000a900473ffffffffffffffffffffffffffffffffffffffff16905081600360006101000a81548173ffffffffffffffffffffffffffffffffffffffff021916908373ffffffffffffffffffffffffffffffffffffffff1602179055508173ffffffffffffffffffffffffffffffffffffffff168173ffffffffffffffffffffffffffffffffffffffff167f8be0079c531659141344cd1fd0a4f28419497f9722a3daafe3b4186f6b6457e060405160405180910390a35050565b828054620001d390620003f7565b90600052602060002090601f016020900481019282620001f7576000855562000243565b82601f106200021257805160ff191683800117855562000243565b8280016001018555821562000243579182015b828111156200024257825182559160200191906001019062000225565b5b50905062000252919062000256565b5090565b5b808211156200027157600081600090555060010162000257565b5090565b60006200028c620002868462000381565b62000358565b905082815260208101848484011115620002a557600080fd5b620002b2848285620003c1565b509392505050565b600082601f830112620002cc57600080fd5b8151620002de84826020860162000275565b91505092915050565b600081519050620002f881620004d2565b92915050565b600080604083850312156200031257600080fd5b600083015167ffffffffffffffff8111156200032d57600080fd5b6200033b85828601620002ba565b92505060206200034e85828601620002e7565b9150509250929050565b60006200036462000377565b90506200037282826200042d565b919050565b6000604051905090565b600067ffffffffffffffff8211156200039f576200039e62000492565b5b620003aa82620004c1565b9050602081019050919050565b6000819050919050565b60005b83811015620003e1578082015181840152602081019050620003c4565b83811115620003f1576000848401525b50505050565b600060028204905060018216806200041057607f821691505b6020821081141562000427576200042662000463565b5b50919050565b6200043882620004c1565b810181811067ffffffffffffffff821117156200045a576200045962000492565b5b80604052505050565b7f4e487b7100000000000000000000000000000000000000000000000000000000600052602260045260246000fd5b7f4e487b7100000000000000000000000000000000000000000000000000000000600052604160045260246000fd5b6000601f19601f8301169050919050565b620004dd81620003b7565b8114620004e957600080fd5b50565b615fb580620004fc6000396000f3fe60806040526004361061019b5760003560e01c80637975ce28116100ec578063ba1800401161008a578063e985e9c511610064578063e985e9c51461063f578063f242432a1461067c578063f2fde38b146106a5578063f5c6b96b146106ce5761019b565b8063ba18004014610593578063be2a6ec0146105d0578063db3fa4cc146105fb5761019b565b8063a22cb465116100c6578063a22cb465146104d9578063a51e81ed14610502578063a7d5ad751461053f578063aa46a400146105685761019b565b80637975ce28146104415780638da5cb5b1461047157806398ba62191461049c5761019b565b80632eb2c2d611610159578063715018a611610133578063715018a6146103825780637259e0f81461039957806375d0c0dc146103d657806376957c13146104015761019b565b80632eb2c2d6146102d85780634e1273f4146103015780637019c1f91461033e5761019b565b8062fdd58e146101a057806301ffc9a7146101dd5780630e89341c1461021a57806316f0115b1461025757806318474cea146102825780632d89c435146102ad575b600080fd5b3480156101ac57600080fd5b506101c760048036038101906101c29190614788565b610712565b6040516101d491906153dc565b60405180910390f35b3480156101e957600080fd5b5061020460048036038101906101ff9190614830565b6107db565b604051610211919061517f565b60405180910390f35b34801561022657600080fd5b50610241600480360381019061023c9190614941565b6108bd565b60405161024e919061519a565b60405180910390f35b34801561026357600080fd5b5061026c610951565b6040516102799190614f81565b60405180910390f35b34801561028e57600080fd5b50610297610977565b6040516102a49190615104565b60405180910390f35b3480156102b957600080fd5b506102c2610e09565b6040516102cf9190615104565b60405180910390f35b3480156102e457600080fd5b506102ff60048036038101906102fa91906145aa565b61129b565b005b34801561030d57600080fd5b50610328600480360381019061032391906147c4565b61133c565b6040516103359190615126565b60405180910390f35b34801561034a57600080fd5b5061036560048036038101906103609190614788565b6114ed565b6040516103799897969594939291906153f7565b60405180910390f35b34801561038e57600080fd5b50610397611779565b005b3480156103a557600080fd5b506103c060048036038101906103bb9190614941565b611801565b6040516103cd9190614f81565b60405180910390f35b3480156103e257600080fd5b506103eb611840565b6040516103f8919061519a565b60405180910390f35b34801561040d57600080fd5b5061042860048036038101906104239190614545565b6118ce565b604051610438949392919061505e565b60405180910390f35b61045b6004803603810190610456919061496a565b6119b3565b604051610468919061517f565b60405180910390f35b34801561047d57600080fd5b50610486611df5565b6040516104939190614f81565b60405180910390f35b3480156104a857600080fd5b506104c360048036038101906104be9190614941565b611e1f565b6040516104d091906153dc565b60405180910390f35b3480156104e557600080fd5b5061050060048036038101906104fb91906146f8565b611e37565b005b34801561050e57600080fd5b5061052960048036038101906105249190614734565b611fb8565b604051610536919061517f565b60405180910390f35b34801561054b57600080fd5b5061056660048036038101906105619190614882565b6121b9565b005b34801561057457600080fd5b5061057d6127cb565b60405161058a91906153dc565b60405180910390f35b34801561059f57600080fd5b506105ba60048036038101906105b59190614941565b6127d7565b6040516105c79190614f81565b60405180910390f35b3480156105dc57600080fd5b506105e5612816565b6040516105f29190615104565b60405180910390f35b34801561060757600080fd5b50610622600480360381019061061d9190614788565b612c60565b6040516106369897969594939291906153f7565b60405180910390f35b34801561064b57600080fd5b506106666004803603810190610661919061456e565b612eec565b604051610673919061517f565b60405180910390f35b34801561068857600080fd5b506106a3600480360381019061069e9190614669565b612f80565b005b3480156106b157600080fd5b506106cc60048036038101906106c79190614545565b613021565b005b3480156106da57600080fd5b506106f560048036038101906106f09190614941565b613119565b6040516107099897969594939291906153f7565b60405180910390f35b60008073ffffffffffffffffffffffffffffffffffffffff168373ffffffffffffffffffffffffffffffffffffffff161415610783576040517f08c379a000000000000000000000000000000000000000000000000000000000815260040161077a9061521c565b60405180910390fd5b60008083815260200190815260200160002060008473ffffffffffffffffffffffffffffffffffffffff1673ffffffffffffffffffffffffffffffffffffffff16815260200190815260200160002054905092915050565b60007fd9b67a26000000000000000000000000000000000000000000000000000000007bffffffffffffffffffffffffffffffffffffffffffffffffffffffff1916827bffffffffffffffffffffffffffffffffffffffffffffffffffffffff191614806108a657507f0e89341c000000000000000000000000000000000000000000000000000000007bffffffffffffffffffffffffffffffffffffffffffffffffffffffff1916827bffffffffffffffffffffffffffffffffffffffffffffffffffffffff1916145b806108b657506108b582613388565b5b9050919050565b6060600280546108cc90615818565b80601f01602080910402602001604051908101604052809291908181526020018280546108f890615818565b80156109455780601f1061091a57610100808354040283529160200191610945565b820191906000526020600020905b81548152906001019060200180831161092857829003601f168201915b50505050509050919050565b600660009054906101000a900473ffffffffffffffffffffffffffffffffffffffff1681565b606060003390506000600f60008373ffffffffffffffffffffffffffffffffffffffff1673ffffffffffffffffffffffffffffffffffffffff168152602001908152602001600020805490501115610e04576000600f60008373ffffffffffffffffffffffffffffffffffffffff1673ffffffffffffffffffffffffffffffffffffffff16815260200190815260200160002080549050905060008167ffffffffffffffff811115610a52577f4e487b7100000000000000000000000000000000000000000000000000000000600052604160045260246000fd5b604051908082528060200260200182016040528015610a8b57816020015b610a78614125565b815260200190600190039081610a705790505b50905060005b82811015610df857600f60008573ffffffffffffffffffffffffffffffffffffffff1673ffffffffffffffffffffffffffffffffffffffff1681526020019081526020016000208181548110610b10577f4e487b7100000000000000000000000000000000000000000000000000000000600052603260045260246000fd5b90600052602060002090600b02016040518061010001604052908160008201548152602001600182016040518060800160405290816000820160009054906101000a900473ffffffffffffffffffffffffffffffffffffffff1673ffffffffffffffffffffffffffffffffffffffff1673ffffffffffffffffffffffffffffffffffffffff168152602001600182018054610baa90615818565b80601f0160208091040260200160405190810160405280929190818152602001828054610bd690615818565b8015610c235780601f10610bf857610100808354040283529160200191610c23565b820191906000526020600020905b815481529060010190602001808311610c0657829003601f168201915b50505050508152602001600282015481526020016003820160009054906101000a900460ff1615151515815250508152602001600582018054610c6590615818565b80601f0160208091040260200160405190810160405280929190818152602001828054610c9190615818565b8015610cde5780601f10610cb357610100808354040283529160200191610cde565b820191906000526020600020905b815481529060010190602001808311610cc157829003601f168201915b50505050508152602001600682018054610cf790615818565b80601f0160208091040260200160405190810160405280929190818152602001828054610d2390615818565b8015610d705780601f10610d4557610100808354040283529160200191610d70565b820191906000526020600020905b815481529060010190602001808311610d5357829003601f168201915b50505050508152602001600782015481526020016008820154815260200160098201548152602001600a82015481525050828281518110610dda577f4e487b7100000000000000000000000000000000000000000000000000000000600052603260045260246000fd5b60200260200101819052508080610df09061587b565b915050610a91565b50809350505050610e06565b505b90565b606060003390506000600960008373ffffffffffffffffffffffffffffffffffffffff1673ffffffffffffffffffffffffffffffffffffffff168152602001908152602001600020805490501115611296576000600960008373ffffffffffffffffffffffffffffffffffffffff1673ffffffffffffffffffffffffffffffffffffffff16815260200190815260200160002080549050905060008167ffffffffffffffff811115610ee4577f4e487b7100000000000000000000000000000000000000000000000000000000600052604160045260246000fd5b604051908082528060200260200182016040528015610f1d57816020015b610f0a614125565b815260200190600190039081610f025790505b50905060005b8281101561128a57600960008573ffffffffffffffffffffffffffffffffffffffff1673ffffffffffffffffffffffffffffffffffffffff1681526020019081526020016000208181548110610fa2577f4e487b7100000000000000000000000000000000000000000000000000000000600052603260045260246000fd5b90600052602060002090600b02016040518061010001604052908160008201548152602001600182016040518060800160405290816000820160009054906101000a900473ffffffffffffffffffffffffffffffffffffffff1673ffffffffffffffffffffffffffffffffffffffff1673ffffffffffffffffffffffffffffffffffffffff16815260200160018201805461103c90615818565b80601f016020809104026020016040519081016040528092919081815260200182805461106890615818565b80156110b55780601f1061108a576101008083540402835291602001916110b5565b820191906000526020600020905b81548152906001019060200180831161109857829003601f168201915b50505050508152602001600282015481526020016003820160009054906101000a900460ff16151515158152505081526020016005820180546110f790615818565b80601f016020809104026020016040519081016040528092919081815260200182805461112390615818565b80156111705780601f1061114557610100808354040283529160200191611170565b820191906000526020600020905b81548152906001019060200180831161115357829003601f168201915b5050505050815260200160068201805461118990615818565b80601f01602080910402602001604051908101604052809291908181526020018280546111b590615818565b80156112025780601f106111d757610100808354040283529160200191611202565b820191906000526020600020905b8154815290600101906020018083116111e557829003601f168201915b50505050508152602001600782015481526020016008820154815260200160098201548152602001600a8201548152505082828151811061126c577f4e487b7100000000000000000000000000000000000000000000000000000000600052603260045260246000fd5b602002602001018190525080806112829061587b565b915050610f23565b50809350505050611298565b505b90565b6112a36133f2565b73ffffffffffffffffffffffffffffffffffffffff168573ffffffffffffffffffffffffffffffffffffffff1614806112e957506112e8856112e36133f2565b612eec565b5b611328576040517f08c379a000000000000000000000000000000000000000000000000000000000815260040161131f906152dc565b60405180910390fd5b61133585858585856133fa565b5050505050565b60608151835114611382576040517f08c379a00000000000000000000000000000000000000000000000000000000081526004016113799061537c565b60405180910390fd5b6000835167ffffffffffffffff8111156113c5577f4e487b7100000000000000000000000000000000000000000000000000000000600052604160045260246000fd5b6040519080825280602002602001820160405280156113f35781602001602082028036833780820191505090505b50905060005b84518110156114e25761148c85828151811061143e577f4e487b7100000000000000000000000000000000000000000000000000000000600052603260045260246000fd5b602002602001015185838151811061147f577f4e487b7100000000000000000000000000000000000000000000000000000000600052603260045260246000fd5b6020026020010151610712565b8282815181106114c5577f4e487b7100000000000000000000000000000000000000000000000000000000600052603260045260246000fd5b602002602001018181525050806114db9061587b565b90506113f9565b508091505092915050565b6009602052816000526040600020818154811061150957600080fd5b90600052602060002090600b020160009150915050806000015490806001016040518060800160405290816000820160009054906101000a900473ffffffffffffffffffffffffffffffffffffffff1673ffffffffffffffffffffffffffffffffffffffff1673ffffffffffffffffffffffffffffffffffffffff16815260200160018201805461159990615818565b80601f01602080910402602001604051908101604052809291908181526020018280546115c590615818565b80156116125780601f106115e757610100808354040283529160200191611612565b820191906000526020600020905b8154815290600101906020018083116115f557829003601f168201915b50505050508152602001600282015481526020016003820160009054906101000a900460ff1615151515815250509080600501805461165090615818565b80601f016020809104026020016040519081016040528092919081815260200182805461167c90615818565b80156116c95780601f1061169e576101008083540402835291602001916116c9565b820191906000526020600020905b8154815290600101906020018083116116ac57829003601f168201915b5050505050908060060180546116de90615818565b80601f016020809104026020016040519081016040528092919081815260200182805461170a90615818565b80156117575780601f1061172c57610100808354040283529160200191611757565b820191906000526020600020905b81548152906001019060200180831161173a57829003601f168201915b50505050509080600701549080600801549080600901549080600a0154905088565b6117816133f2565b73ffffffffffffffffffffffffffffffffffffffff1661179f611df5565b73ffffffffffffffffffffffffffffffffffffffff16146117f5576040517f08c379a00000000000000000000000000000000000000000000000000000000081526004016117ec9061531c565b60405180910390fd5b6117ff600061375a565b565b600e818154811061181157600080fd5b906000526020600020016000915054906101000a900473ffffffffffffffffffffffffffffffffffffffff1681565b6007805461184d90615818565b80601f016020809104026020016040519081016040528092919081815260200182805461187990615818565b80156118c65780601f1061189b576101008083540402835291602001916118c6565b820191906000526020600020905b8154815290600101906020018083116118a957829003601f168201915b505050505081565b600a6020528060005260406000206000915090508060000160009054906101000a900473ffffffffffffffffffffffffffffffffffffffff169080600101805461191790615818565b80601f016020809104026020016040519081016040528092919081815260200182805461194390615818565b80156119905780601f1061196557610100808354040283529160200191611990565b820191906000526020600020905b81548152906001019060200180831161197357829003601f168201915b5050505050908060020154908060030160009054906101000a900460ff16905084565b6000670de0b6b3a764000082600c6000868152602001908152602001600020600701546119e091906156d4565b6119ea91906156d4565b341015611a2c576040517f08c379a0000000000000000000000000000000000000000000000000000000008152600401611a239061533c565b60405180910390fd5b6000600860008581526020019081526020016000205490506000600c600086815260200190815260200160002060010160000160009054906101000a900473ffffffffffffffffffffffffffffffffffffffff16905081841115611ac5576040517f08c379a0000000000000000000000000000000000000000000000000000000008152600401611abc906151fc565b60405180910390fd5b60006064600b546064611ad8919061572e565b34611ae391906156d4565b611aed91906156a3565b905060006064600b5434611b0191906156d4565b611b0b91906156a3565b90508273ffffffffffffffffffffffffffffffffffffffff166108fc839081150290604051600060405180830381858888f19350505050158015611b53573d6000803e3d6000fd5b50600660009054906101000a900473ffffffffffffffffffffffffffffffffffffffff1673ffffffffffffffffffffffffffffffffffffffff166108fc829081150290604051600060405180830381858888f19350505050158015611bbc573d6000803e3d6000fd5b5085600860008981526020019081526020016000206000828254611be0919061572e565b9250508190555085600c60008981526020019081526020016000206008016000828254611c0d919061572e565b92505081905550600960003373ffffffffffffffffffffffffffffffffffffffff1673ffffffffffffffffffffffffffffffffffffffff168152602001908152602001600020600c600089815260200190815260200160002090806001815401808255809150506001900390600052602060002090600b02016000909190919091506000820154816000015560018201816001016000820160009054906101000a900473ffffffffffffffffffffffffffffffffffffffff168160000160006101000a81548173ffffffffffffffffffffffffffffffffffffffff021916908373ffffffffffffffffffffffffffffffffffffffff1602179055506001820181600101908054611d1c90615818565b611d27929190614170565b50600282015481600201556003820160009054906101000a900460ff168160030160006101000a81548160ff02191690831515021790555050506005820181600501908054611d7590615818565b611d80929190614170565b506006820181600601908054611d9590615818565b611da0929190614170565b50600782015481600701556008820154816008015560098201548160090155600a82015481600a01555050611de78333898960405180602001604052806000815250613820565b600194505050505092915050565b6000600360009054906101000a900473ffffffffffffffffffffffffffffffffffffffff16905090565b60086020528060005260406000206000915090505481565b8173ffffffffffffffffffffffffffffffffffffffff16611e566133f2565b73ffffffffffffffffffffffffffffffffffffffff161415611ead576040517f08c379a0000000000000000000000000000000000000000000000000000000008152600401611ea49061535c565b60405180910390fd5b8060016000611eba6133f2565b73ffffffffffffffffffffffffffffffffffffffff1673ffffffffffffffffffffffffffffffffffffffff16815260200190815260200160002060008473ffffffffffffffffffffffffffffffffffffffff1673ffffffffffffffffffffffffffffffffffffffff16815260200190815260200160002060006101000a81548160ff0219169083151502179055508173ffffffffffffffffffffffffffffffffffffffff16611f676133f2565b73ffffffffffffffffffffffffffffffffffffffff167f17307eab39ab6107e8899845ad3d59bd9653f200f220920489ca2b5937696c3183604051611fac919061517f565b60405180910390a35050565b6000611fc26133f2565b73ffffffffffffffffffffffffffffffffffffffff16611fe0611df5565b73ffffffffffffffffffffffffffffffffffffffff1614612036576040517f08c379a000000000000000000000000000000000000000000000000000000000815260040161202d9061531c565b60405180910390fd5b61203e6141fd565b60405180608001604052808573ffffffffffffffffffffffffffffffffffffffff16815260200184815260200142815260200160011515815250905080600a60008673ffffffffffffffffffffffffffffffffffffffff1673ffffffffffffffffffffffffffffffffffffffff16815260200190815260200160002060008201518160000160006101000a81548173ffffffffffffffffffffffffffffffffffffffff021916908373ffffffffffffffffffffffffffffffffffffffff160217905550602082015181600101908051906020019061211d92919061423d565b506040820151816002015560608201518160030160006101000a81548160ff021916908315150217905550905050600d849080600181540180825580915050600190039060005260206000200160009091909190916101000a81548173ffffffffffffffffffffffffffffffffffffffff021916908373ffffffffffffffffffffffffffffffffffffffff160217905550600191505092915050565b60011515600a60003373ffffffffffffffffffffffffffffffffffffffff1673ffffffffffffffffffffffffffffffffffffffff16815260200190815260200160002060030160009054906101000a900460ff1615151461224f576040517f08c379a00000000000000000000000000000000000000000000000000000000081526004016122469061527c565b60405180910390fd5b6006600f60003373ffffffffffffffffffffffffffffffffffffffff1673ffffffffffffffffffffffffffffffffffffffff16815260200190815260200160002080549050106122d4576040517f08c379a00000000000000000000000000000000000000000000000000000000081526004016122cb9061529c565b60405180910390fd5b6122dc614125565b60405180610100016040528060016122f46005613aa2565b6122fe919061564d565b8152602001600a60003373ffffffffffffffffffffffffffffffffffffffff1673ffffffffffffffffffffffffffffffffffffffff1681526020019081526020016000206040518060800160405290816000820160009054906101000a900473ffffffffffffffffffffffffffffffffffffffff1673ffffffffffffffffffffffffffffffffffffffff1673ffffffffffffffffffffffffffffffffffffffff1681526020016001820180546123b390615818565b80601f01602080910402602001604051908101604052809291908181526020018280546123df90615818565b801561242c5780601f106124015761010080835404028352916020019161242c565b820191906000526020600020905b81548152906001019060200180831161240f57829003601f168201915b50505050508152602001600282015481526020016003820160009054906101000a900460ff161515151581525050815260200187815260200183815260200186815260200185815260200185815260200142815250905080600c600060016124946005613aa2565b61249e919061564d565b81526020019081526020016000206000820151816000015560208201518160010160008201518160000160006101000a81548173ffffffffffffffffffffffffffffffffffffffff021916908373ffffffffffffffffffffffffffffffffffffffff160217905550602082015181600101908051906020019061252292919061423d565b506040820151816002015560608201518160030160006101000a81548160ff0219169083151502179055505050604082015181600501908051906020019061256b92919061423d565b50606082015181600601908051906020019061258892919061423d565b506080820151816007015560a0820151816008015560c0820151816009015560e082015181600a0155905050600f60003373ffffffffffffffffffffffffffffffffffffffff1673ffffffffffffffffffffffffffffffffffffffff1681526020019081526020016000208190806001815401808255809150506001900390600052602060002090600b02016000909190919091506000820151816000015560208201518160010160008201518160000160006101000a81548173ffffffffffffffffffffffffffffffffffffffff021916908373ffffffffffffffffffffffffffffffffffffffff160217905550602082015181600101908051906020019061269392919061423d565b506040820151816002015560608201518160030160006101000a81548160ff021916908315150217905550505060408201518160050190805190602001906126dc92919061423d565b5060608201518160060190805190602001906126f992919061423d565b506080820151816007015560a0820151816008015560c0820151816009015560e082015181600a0155505061272d83613ab0565b6127376005613aca565b60006127436005613aa2565b905061276033828760405180602001604052806000815250613ae0565b61276b306001611e37565b8460086000838152602001908152602001600020819055507fd33a29693b0c1e4497bd99a5d678d78d400627b434590d51b4961816620b20a633888389896040516127ba9594939291906150aa565b60405180910390a150505050505050565b60058060000154905081565b600d81815481106127e757600080fd5b906000526020600020016000915054906101000a900473ffffffffffffffffffffffffffffffffffffffff1681565b60608060006128256005613aa2565b14156128345780915050612c5d565b600080600190505b6128466005613aa2565b811161288e576000600c600083815260200190815260200160002060080154111561287b57600182612878919061564d565b91505b80806128869061587b565b91505061283c565b5060018110156128a2578192505050612c5d565b6000808267ffffffffffffffff8111156128e5577f4e487b7100000000000000000000000000000000000000000000000000000000600052604160045260246000fd5b60405190808252806020026020018201604052801561291e57816020015b61290b614125565b8152602001906001900390816129035790505b5090506000600190505b6129326005613aa2565b8111612c54576000600c6000838152602001908152602001600020600801541115612c4157600c60008281526020019081526020016000206040518061010001604052908160008201548152602001600182016040518060800160405290816000820160009054906101000a900473ffffffffffffffffffffffffffffffffffffffff1673ffffffffffffffffffffffffffffffffffffffff1673ffffffffffffffffffffffffffffffffffffffff1681526020016001820180546129f690615818565b80601f0160208091040260200160405190810160405280929190818152602001828054612a2290615818565b8015612a6f5780601f10612a4457610100808354040283529160200191612a6f565b820191906000526020600020905b815481529060010190602001808311612a5257829003601f168201915b50505050508152602001600282015481526020016003820160009054906101000a900460ff1615151515815250508152602001600582018054612ab190615818565b80601f0160208091040260200160405190810160405280929190818152602001828054612add90615818565b8015612b2a5780601f10612aff57610100808354040283529160200191612b2a565b820191906000526020600020905b815481529060010190602001808311612b0d57829003601f168201915b50505050508152602001600682018054612b4390615818565b80601f0160208091040260200160405190810160405280929190818152602001828054612b6f90615818565b8015612bbc5780601f10612b9157610100808354040283529160200191612bbc565b820191906000526020600020905b815481529060010190602001808311612b9f57829003601f168201915b50505050508152602001600782015481526020016008820154815260200160098201548152602001600a82015481525050828481518110612c26577f4e487b7100000000000000000000000000000000000000000000000000000000600052603260045260246000fd5b6020026020010181905250600183612c3e919061564d565b92505b8080612c4c9061587b565b915050612928565b50809450505050505b90565b600f6020528160005260406000208181548110612c7c57600080fd5b90600052602060002090600b020160009150915050806000015490806001016040518060800160405290816000820160009054906101000a900473ffffffffffffffffffffffffffffffffffffffff1673ffffffffffffffffffffffffffffffffffffffff1673ffffffffffffffffffffffffffffffffffffffff168152602001600182018054612d0c90615818565b80601f0160208091040260200160405190810160405280929190818152602001828054612d3890615818565b8015612d855780601f10612d5a57610100808354040283529160200191612d85565b820191906000526020600020905b815481529060010190602001808311612d6857829003601f168201915b50505050508152602001600282015481526020016003820160009054906101000a900460ff16151515158152505090806005018054612dc390615818565b80601f0160208091040260200160405190810160405280929190818152602001828054612def90615818565b8015612e3c5780601f10612e1157610100808354040283529160200191612e3c565b820191906000526020600020905b815481529060010190602001808311612e1f57829003601f168201915b505050505090806006018054612e5190615818565b80601f0160208091040260200160405190810160405280929190818152602001828054612e7d90615818565b8015612eca5780601f10612e9f57610100808354040283529160200191612eca565b820191906000526020600020905b815481529060010190602001808311612ead57829003601f168201915b50505050509080600701549080600801549080600901549080600a0154905088565b6000600160008473ffffffffffffffffffffffffffffffffffffffff1673ffffffffffffffffffffffffffffffffffffffff16815260200190815260200160002060008373ffffffffffffffffffffffffffffffffffffffff1673ffffffffffffffffffffffffffffffffffffffff16815260200190815260200160002060009054906101000a900460ff16905092915050565b612f886133f2565b73ffffffffffffffffffffffffffffffffffffffff168573ffffffffffffffffffffffffffffffffffffffff161480612fce5750612fcd85612fc86133f2565b612eec565b5b61300d576040517f08c379a00000000000000000000000000000000000000000000000000000000081526004016130049061525c565b60405180910390fd5b61301a8585858585613820565b5050505050565b6130296133f2565b73ffffffffffffffffffffffffffffffffffffffff16613047611df5565b73ffffffffffffffffffffffffffffffffffffffff161461309d576040517f08c379a00000000000000000000000000000000000000000000000000000000081526004016130949061531c565b60405180910390fd5b600073ffffffffffffffffffffffffffffffffffffffff168173ffffffffffffffffffffffffffffffffffffffff16141561310d576040517f08c379a00000000000000000000000000000000000000000000000000000000081526004016131049061523c565b60405180910390fd5b6131168161375a565b50565b600c602052806000526040600020600091509050806000015490806001016040518060800160405290816000820160009054906101000a900473ffffffffffffffffffffffffffffffffffffffff1673ffffffffffffffffffffffffffffffffffffffff1673ffffffffffffffffffffffffffffffffffffffff1681526020016001820180546131a890615818565b80601f01602080910402602001604051908101604052809291908181526020018280546131d490615818565b80156132215780601f106131f657610100808354040283529160200191613221565b820191906000526020600020905b81548152906001019060200180831161320457829003601f168201915b50505050508152602001600282015481526020016003820160009054906101000a900460ff1615151515815250509080600501805461325f90615818565b80601f016020809104026020016040519081016040528092919081815260200182805461328b90615818565b80156132d85780601f106132ad576101008083540402835291602001916132d8565b820191906000526020600020905b8154815290600101906020018083116132bb57829003601f168201915b5050505050908060060180546132ed90615818565b80601f016020809104026020016040519081016040528092919081815260200182805461331990615818565b80156133665780601f1061333b57610100808354040283529160200191613366565b820191906000526020600020905b81548152906001019060200180831161334957829003601f168201915b50505050509080600701549080600801549080600901549080600a0154905088565b60007f01ffc9a7000000000000000000000000000000000000000000000000000000007bffffffffffffffffffffffffffffffffffffffffffffffffffffffff1916827bffffffffffffffffffffffffffffffffffffffffffffffffffffffff1916149050919050565b600033905090565b815183511461343e576040517f08c379a00000000000000000000000000000000000000000000000000000000081526004016134359061539c565b60405180910390fd5b600073ffffffffffffffffffffffffffffffffffffffff168473ffffffffffffffffffffffffffffffffffffffff1614156134ae576040517f08c379a00000000000000000000000000000000000000000000000000000000081526004016134a5906152bc565b60405180910390fd5b60006134b86133f2565b90506134c8818787878787613c76565b60005b84518110156136c557600085828151811061350f577f4e487b7100000000000000000000000000000000000000000000000000000000600052603260045260246000fd5b602002602001015190506000858381518110613554577f4e487b7100000000000000000000000000000000000000000000000000000000600052603260045260246000fd5b60200260200101519050600080600084815260200190815260200160002060008b73ffffffffffffffffffffffffffffffffffffffff1673ffffffffffffffffffffffffffffffffffffffff168152602001908152602001600020549050818110156135f5576040517f08c379a00000000000000000000000000000000000000000000000000000000081526004016135ec906152fc565b60405180910390fd5b81810360008085815260200190815260200160002060008c73ffffffffffffffffffffffffffffffffffffffff1673ffffffffffffffffffffffffffffffffffffffff168152602001908152602001600020819055508160008085815260200190815260200160002060008b73ffffffffffffffffffffffffffffffffffffffff1673ffffffffffffffffffffffffffffffffffffffff16815260200190815260200160002060008282546136aa919061564d565b92505081905550505050806136be9061587b565b90506134cb565b508473ffffffffffffffffffffffffffffffffffffffff168673ffffffffffffffffffffffffffffffffffffffff168273ffffffffffffffffffffffffffffffffffffffff167f4a39dc06d4c0dbc64b70af90fd698a233a518aa5d07e595d983b8c0526c8f7fb878760405161373c929190615148565b60405180910390a4613752818787878787613c7e565b505050505050565b6000600360009054906101000a900473ffffffffffffffffffffffffffffffffffffffff16905081600360006101000a81548173ffffffffffffffffffffffffffffffffffffffff021916908373ffffffffffffffffffffffffffffffffffffffff1602179055508173ffffffffffffffffffffffffffffffffffffffff168173ffffffffffffffffffffffffffffffffffffffff167f8be0079c531659141344cd1fd0a4f28419497f9722a3daafe3b4186f6b6457e060405160405180910390a35050565b600073ffffffffffffffffffffffffffffffffffffffff168473ffffffffffffffffffffffffffffffffffffffff161415613890576040517f08c379a0000000000000000000000000000000000000000000000000000000008152600401613887906152bc565b60405180910390fd5b600061389a6133f2565b90506138ba8187876138ab88613e65565b6138b488613e65565b87613c76565b600080600086815260200190815260200160002060008873ffffffffffffffffffffffffffffffffffffffff1673ffffffffffffffffffffffffffffffffffffffff16815260200190815260200160002054905083811015613951576040517f08c379a0000000000000000000000000000000000000000000000000000000008152600401613948906152fc565b60405180910390fd5b83810360008087815260200190815260200160002060008973ffffffffffffffffffffffffffffffffffffffff1673ffffffffffffffffffffffffffffffffffffffff168152602001908152602001600020819055508360008087815260200190815260200160002060008873ffffffffffffffffffffffffffffffffffffffff1673ffffffffffffffffffffffffffffffffffffffff1681526020019081526020016000206000828254613a06919061564d565b925050819055508573ffffffffffffffffffffffffffffffffffffffff168773ffffffffffffffffffffffffffffffffffffffff168373ffffffffffffffffffffffffffffffffffffffff167fc3d58168c5ae7397731d063d5bbf3d657854427343f4c083240f7aacaa2d0f628888604051613a8392919061548a565b60405180910390a4613a99828888888888613f2b565b50505050505050565b600081600001549050919050565b8060029080519060200190613ac692919061423d565b5050565b6001816000016000828254019250508190555050565b600073ffffffffffffffffffffffffffffffffffffffff168473ffffffffffffffffffffffffffffffffffffffff161415613b50576040517f08c379a0000000000000000000000000000000000000000000000000000000008152600401613b47906153bc565b60405180910390fd5b6000613b5a6133f2565b9050613b7b81600087613b6c88613e65565b613b7588613e65565b87613c76565b8260008086815260200190815260200160002060008773ffffffffffffffffffffffffffffffffffffffff1673ffffffffffffffffffffffffffffffffffffffff1681526020019081526020016000206000828254613bda919061564d565b925050819055508473ffffffffffffffffffffffffffffffffffffffff16600073ffffffffffffffffffffffffffffffffffffffff168273ffffffffffffffffffffffffffffffffffffffff167fc3d58168c5ae7397731d063d5bbf3d657854427343f4c083240f7aacaa2d0f628787604051613c5892919061548a565b60405180910390a4613c6f81600087878787613f2b565b5050505050565b505050505050565b613c9d8473ffffffffffffffffffffffffffffffffffffffff16614112565b15613e5d578373ffffffffffffffffffffffffffffffffffffffff1663bc197c8187878686866040518663ffffffff1660e01b8152600401613ce3959493929190614f9c565b602060405180830381600087803b158015613cfd57600080fd5b505af1925050508015613d2e57506040513d601f19601f82011682018060405250810190613d2b9190614859565b60015b613dd457613d3a615980565b806308c379a01415613d975750613d4f615e8d565b80613d5a5750613d99565b806040517f08c379a0000000000000000000000000000000000000000000000000000000008152600401613d8e919061519a565b60405180910390fd5b505b6040517f08c379a0000000000000000000000000000000000000000000000000000000008152600401613dcb906151bc565b60405180910390fd5b63bc197c8160e01b7bffffffffffffffffffffffffffffffffffffffffffffffffffffffff1916817bffffffffffffffffffffffffffffffffffffffffffffffffffffffff191614613e5b576040517f08c379a0000000000000000000000000000000000000000000000000000000008152600401613e52906151dc565b60405180910390fd5b505b505050505050565b60606000600167ffffffffffffffff811115613eaa577f4e487b7100000000000000000000000000000000000000000000000000000000600052604160045260246000fd5b604051908082528060200260200182016040528015613ed85781602001602082028036833780820191505090505b5090508281600081518110613f16577f4e487b7100000000000000000000000000000000000000000000000000000000600052603260045260246000fd5b60200260200101818152505080915050919050565b613f4a8473ffffffffffffffffffffffffffffffffffffffff16614112565b1561410a578373ffffffffffffffffffffffffffffffffffffffff1663f23a6e6187878686866040518663ffffffff1660e01b8152600401613f90959493929190615004565b602060405180830381600087803b158015613faa57600080fd5b505af1925050508015613fdb57506040513d601f19601f82011682018060405250810190613fd89190614859565b60015b61408157613fe7615980565b806308c379a014156140445750613ffc615e8d565b806140075750614046565b806040517f08c379a000000000000000000000000000000000000000000000000000000000815260040161403b919061519a565b60405180910390fd5b505b6040517f08c379a0000000000000000000000000000000000000000000000000000000008152600401614078906151bc565b60405180910390fd5b63f23a6e6160e01b7bffffffffffffffffffffffffffffffffffffffffffffffffffffffff1916817bffffffffffffffffffffffffffffffffffffffffffffffffffffffff191614614108576040517f08c379a00000000000000000000000000000000000000000000000000000000081526004016140ff906151dc565b60405180910390fd5b505b505050505050565b600080823b905060008111915050919050565b604051806101000160405280600081526020016141406141fd565b81526020016060815260200160608152602001600081526020016000815260200160008152602001600081525090565b82805461417c90615818565b90600052602060002090601f01602090048101928261419e57600085556141ec565b82601f106141af57805485556141ec565b828001600101855582156141ec57600052602060002091601f016020900482015b828111156141eb5782548255916001019190600101906141d0565b5b5090506141f991906142c3565b5090565b6040518060800160405280600073ffffffffffffffffffffffffffffffffffffffff16815260200160608152602001600081526020016000151581525090565b82805461424990615818565b90600052602060002090601f01602090048101928261426b57600085556142b2565b82601f1061428457805160ff19168380011785556142b2565b828001600101855582156142b2579182015b828111156142b1578251825591602001919060010190614296565b5b5090506142bf91906142c3565b5090565b5b808211156142dc5760008160009055506001016142c4565b5090565b60006142f36142ee846154d8565b6154b3565b9050808382526020820190508285602086028201111561431257600080fd5b60005b8581101561434257816143288882614434565b845260208401935060208301925050600181019050614315565b5050509392505050565b600061435f61435a84615504565b6154b3565b9050808382526020820190508285602086028201111561437e57600080fd5b60005b858110156143ae57816143948882614530565b845260208401935060208301925050600181019050614381565b5050509392505050565b60006143cb6143c684615530565b6154b3565b9050828152602081018484840111156143e357600080fd5b6143ee8482856157d6565b509392505050565b600061440961440484615561565b6154b3565b90508281526020810184848401111561442157600080fd5b61442c8482856157d6565b509392505050565b60008135905061444381615f23565b92915050565b600082601f83011261445a57600080fd5b813561446a8482602086016142e0565b91505092915050565b600082601f83011261448457600080fd5b813561449484826020860161434c565b91505092915050565b6000813590506144ac81615f3a565b92915050565b6000813590506144c181615f51565b92915050565b6000815190506144d681615f51565b92915050565b600082601f8301126144ed57600080fd5b81356144fd8482602086016143b8565b91505092915050565b600082601f83011261451757600080fd5b81356145278482602086016143f6565b91505092915050565b60008135905061453f81615f68565b92915050565b60006020828403121561455757600080fd5b600061456584828501614434565b91505092915050565b6000806040838503121561458157600080fd5b600061458f85828601614434565b92505060206145a085828601614434565b9150509250929050565b600080600080600060a086880312156145c257600080fd5b60006145d088828901614434565b95505060206145e188828901614434565b945050604086013567ffffffffffffffff8111156145fe57600080fd5b61460a88828901614473565b935050606086013567ffffffffffffffff81111561462757600080fd5b61463388828901614473565b925050608086013567ffffffffffffffff81111561465057600080fd5b61465c888289016144dc565b9150509295509295909350565b600080600080600060a0868803121561468157600080fd5b600061468f88828901614434565b95505060206146a088828901614434565b94505060406146b188828901614530565b93505060606146c288828901614530565b925050608086013567ffffffffffffffff8111156146df57600080fd5b6146eb888289016144dc565b9150509295509295909350565b6000806040838503121561470b57600080fd5b600061471985828601614434565b925050602061472a8582860161449d565b9150509250929050565b6000806040838503121561474757600080fd5b600061475585828601614434565b925050602083013567ffffffffffffffff81111561477257600080fd5b61477e85828601614506565b9150509250929050565b6000806040838503121561479b57600080fd5b60006147a985828601614434565b92505060206147ba85828601614530565b9150509250929050565b600080604083850312156147d757600080fd5b600083013567ffffffffffffffff8111156147f157600080fd5b6147fd85828601614449565b925050602083013567ffffffffffffffff81111561481a57600080fd5b61482685828601614473565b9150509250929050565b60006020828403121561484257600080fd5b6000614850848285016144b2565b91505092915050565b60006020828403121561486b57600080fd5b6000614879848285016144c7565b91505092915050565b600080600080600060a0868803121561489a57600080fd5b600086013567ffffffffffffffff8111156148b457600080fd5b6148c088828901614506565b95505060206148d188828901614530565b94505060406148e288828901614530565b935050606086013567ffffffffffffffff8111156148ff57600080fd5b61490b88828901614506565b925050608086013567ffffffffffffffff81111561492857600080fd5b61493488828901614506565b9150509295509295909350565b60006020828403121561495357600080fd5b600061496184828501614530565b91505092915050565b6000806040838503121561497d57600080fd5b600061498b85828601614530565b925050602061499c85828601614530565b9150509250929050565b60006149b28383614ea5565b905092915050565b60006149c68383614f63565b60208301905092915050565b6149db81615762565b82525050565b6149ea81615762565b82525050565b60006149fb826155b2565b614a0581856155f8565b935083602082028501614a1785615592565b8060005b85811015614a535784840389528151614a3485826149a6565b9450614a3f836155de565b925060208a01995050600181019050614a1b565b50829750879550505050505092915050565b6000614a70826155bd565b614a7a8185615609565b9350614a85836155a2565b8060005b83811015614ab6578151614a9d88826149ba565b9750614aa8836155eb565b925050600181019050614a89565b5085935050505092915050565b614acc81615774565b82525050565b614adb81615774565b82525050565b6000614aec826155c8565b614af6818561561a565b9350614b068185602086016157e5565b614b0f816159a2565b840191505092915050565b6000614b25826155d3565b614b2f818561562b565b9350614b3f8185602086016157e5565b614b48816159a2565b840191505092915050565b6000614b5e826155d3565b614b68818561563c565b9350614b788185602086016157e5565b614b81816159a2565b840191505092915050565b6000614b9960348361563c565b9150614ba4826159c0565b604082019050919050565b6000614bbc60288361563c565b9150614bc782615a0f565b604082019050919050565b6000614bdf60148361563c565b9150614bea82615a5e565b602082019050919050565b6000614c02602b8361563c565b9150614c0d82615a87565b604082019050919050565b6000614c2560268361563c565b9150614c3082615ad6565b604082019050919050565b6000614c4860298361563c565b9150614c5382615b25565b604082019050919050565b6000614c6b60198361563c565b9150614c7682615b74565b602082019050919050565b6000614c8e60258361563c565b9150614c9982615b9d565b604082019050919050565b6000614cb160258361563c565b9150614cbc82615bec565b604082019050919050565b6000614cd460328361563c565b9150614cdf82615c3b565b604082019050919050565b6000614cf7602a8361563c565b9150614d0282615c8a565b604082019050919050565b6000614d1a60208361563c565b9150614d2582615cd9565b602082019050919050565b6000614d3d60308361563c565b9150614d4882615d02565b604082019050919050565b6000614d6060298361563c565b9150614d6b82615d51565b604082019050919050565b6000614d8360298361563c565b9150614d8e82615da0565b604082019050919050565b6000614da660288361563c565b9150614db182615def565b604082019050919050565b6000614dc960218361563c565b9150614dd482615e3e565b604082019050919050565b6000608083016000830151614df760008601826149d2565b5060208301518482036020860152614e0f8282614b1a565b9150506040830151614e246040860182614f63565b506060830151614e376060860182614ac3565b508091505092915050565b6000608083016000830151614e5a60008601826149d2565b5060208301518482036020860152614e728282614b1a565b9150506040830151614e876040860182614f63565b506060830151614e9a6060860182614ac3565b508091505092915050565b600061010083016000830151614ebe6000860182614f63565b5060208301518482036020860152614ed68282614ddf565b91505060408301518482036040860152614ef08282614b1a565b91505060608301518482036060860152614f0a8282614b1a565b9150506080830151614f1f6080860182614f63565b5060a0830151614f3260a0860182614f63565b5060c0830151614f4560c0860182614f63565b5060e0830151614f5860e0860182614f63565b508091505092915050565b614f6c816157cc565b82525050565b614f7b816157cc565b82525050565b6000602082019050614f9660008301846149e1565b92915050565b600060a082019050614fb160008301886149e1565b614fbe60208301876149e1565b8181036040830152614fd08186614a65565b90508181036060830152614fe48185614a65565b90508181036080830152614ff88184614ae1565b90509695505050505050565b600060a08201905061501960008301886149e1565b61502660208301876149e1565b6150336040830186614f72565b6150406060830185614f72565b81810360808301526150528184614ae1565b90509695505050505050565b600060808201905061507360008301876149e1565b81810360208301526150858186614b53565b90506150946040830185614f72565b6150a16060830184614ad2565b95945050505050565b600060a0820190506150bf60008301886149e1565b81810360208301526150d18187614b53565b90506150e06040830186614f72565b6150ed6060830185614f72565b6150fa6080830184614f72565b9695505050505050565b6000602082019050818103600083015261511e81846149f0565b905092915050565b600060208201905081810360008301526151408184614a65565b905092915050565b600060408201905081810360008301526151628185614a65565b905081810360208301526151768184614a65565b90509392505050565b60006020820190506151946000830184614ad2565b92915050565b600060208201905081810360008301526151b48184614b53565b905092915050565b600060208201905081810360008301526151d581614b8c565b9050919050565b600060208201905081810360008301526151f581614baf565b9050919050565b6000602082019050818103600083015261521581614bd2565b9050919050565b6000602082019050818103600083015261523581614bf5565b9050919050565b6000602082019050818103600083015261525581614c18565b9050919050565b6000602082019050818103600083015261527581614c3b565b9050919050565b6000602082019050818103600083015261529581614c5e565b9050919050565b600060208201905081810360008301526152b581614c81565b9050919050565b600060208201905081810360008301526152d581614ca4565b9050919050565b600060208201905081810360008301526152f581614cc7565b9050919050565b6000602082019050818103600083015261531581614cea565b9050919050565b6000602082019050818103600083015261533581614d0d565b9050919050565b6000602082019050818103600083015261535581614d30565b9050919050565b6000602082019050818103600083015261537581614d53565b9050919050565b6000602082019050818103600083015261539581614d76565b9050919050565b600060208201905081810360008301526153b581614d99565b9050919050565b600060208201905081810360008301526153d581614dbc565b9050919050565b60006020820190506153f16000830184614f72565b92915050565b60006101008201905061540d600083018b614f72565b818103602083015261541f818a614e42565b905081810360408301526154338189614b53565b905081810360608301526154478188614b53565b90506154566080830187614f72565b61546360a0830186614f72565b61547060c0830185614f72565b61547d60e0830184614f72565b9998505050505050505050565b600060408201905061549f6000830185614f72565b6154ac6020830184614f72565b9392505050565b60006154bd6154ce565b90506154c9828261584a565b919050565b6000604051905090565b600067ffffffffffffffff8211156154f3576154f2615951565b5b602082029050602081019050919050565b600067ffffffffffffffff82111561551f5761551e615951565b5b602082029050602081019050919050565b600067ffffffffffffffff82111561554b5761554a615951565b5b615554826159a2565b9050602081019050919050565b600067ffffffffffffffff82111561557c5761557b615951565b5b615585826159a2565b9050602081019050919050565b6000819050602082019050919050565b6000819050602082019050919050565b600081519050919050565b600081519050919050565b600081519050919050565b600081519050919050565b6000602082019050919050565b6000602082019050919050565b600082825260208201905092915050565b600082825260208201905092915050565b600082825260208201905092915050565b600082825260208201905092915050565b600082825260208201905092915050565b6000615658826157cc565b9150615663836157cc565b9250827fffffffffffffffffffffffffffffffffffffffffffffffffffffffffffffffff03821115615698576156976158c4565b5b828201905092915050565b60006156ae826157cc565b91506156b9836157cc565b9250826156c9576156c86158f3565b5b828204905092915050565b60006156df826157cc565b91506156ea836157cc565b9250817fffffffffffffffffffffffffffffffffffffffffffffffffffffffffffffffff0483118215151615615723576157226158c4565b5b828202905092915050565b6000615739826157cc565b9150615744836157cc565b925082821015615757576157566158c4565b5b828203905092915050565b600061576d826157ac565b9050919050565b60008115159050919050565b60007fffffffff0000000000000000000000000000000000000000000000000000000082169050919050565b600073ffffffffffffffffffffffffffffffffffffffff82169050919050565b6000819050919050565b82818337600083830152505050565b60005b838110156158035780820151818401526020810190506157e8565b83811115615812576000848401525b50505050565b6000600282049050600182168061583057607f821691505b6020821081141561584457615843615922565b5b50919050565b615853826159a2565b810181811067ffffffffffffffff8211171561587257615871615951565b5b80604052505050565b6000615886826157cc565b91507fffffffffffffffffffffffffffffffffffffffffffffffffffffffffffffffff8214156158b9576158b86158c4565b5b600182019050919050565b7f4e487b7100000000000000000000000000000000000000000000000000000000600052601160045260246000fd5b7f4e487b7100000000000000000000000000000000000000000000000000000000600052601260045260246000fd5b7f4e487b7100000000000000000000000000000000000000000000000000000000600052602260045260246000fd5b7f4e487b7100000000000000000000000000000000000000000000000000000000600052604160045260246000fd5b600060033d111561599f5760046000803e61599c6000516159b3565b90505b90565b6000601f19601f8301169050919050565b60008160e01c9050919050565b7f455243313135353a207472616e7366657220746f206e6f6e204552433131353560008201527f526563656976657220696d706c656d656e746572000000000000000000000000602082015250565b7f455243313135353a204552433131353552656365697665722072656a6563746560008201527f6420746f6b656e73000000000000000000000000000000000000000000000000602082015250565b7f546f6b656e73206e6f7420617661696c61626c65000000000000000000000000600082015250565b7f455243313135353a2062616c616e636520717565727920666f7220746865207a60008201527f65726f2061646472657373000000000000000000000000000000000000000000602082015250565b7f4f776e61626c653a206e6577206f776e657220697320746865207a65726f206160008201527f6464726573730000000000000000000000000000000000000000000000000000602082015250565b7f455243313135353a2063616c6c6572206973206e6f74206f776e6572206e6f7260008201527f20617070726f7665640000000000000000000000000000000000000000000000602082015250565b7f596f75206861766520746f20626520612063726561746f722100000000000000600082015250565b7f596f752063616e206372656174652061206d6178206f66203620546f6b656e7360008201527f206f6e6c79000000000000000000000000000000000000000000000000000000602082015250565b7f455243313135353a207472616e7366657220746f20746865207a65726f20616460008201527f6472657373000000000000000000000000000000000000000000000000000000602082015250565b7f455243313135353a207472616e736665722063616c6c6572206973206e6f742060008201527f6f776e6572206e6f7220617070726f7665640000000000000000000000000000602082015250565b7f455243313135353a20696e73756666696369656e742062616c616e636520666f60008201527f72207472616e7366657200000000000000000000000000000000000000000000602082015250565b7f4f776e61626c653a2063616c6c6572206973206e6f7420746865206f776e6572600082015250565b7f54686520616d6f756e742073656e742073686f756c6420626520657175616c2060008201527f746f20746f6b656e27732076616c756500000000000000000000000000000000602082015250565b7f455243313135353a2073657474696e6720617070726f76616c2073746174757360008201527f20666f722073656c660000000000000000000000000000000000000000000000602082015250565b7f455243313135353a206163636f756e747320616e6420696473206c656e67746860008201527f206d69736d617463680000000000000000000000000000000000000000000000602082015250565b7f455243313135353a2069647320616e6420616d6f756e7473206c656e6774682060008201527f6d69736d61746368000000000000000000000000000000000000000000000000602082015250565b7f455243313135353a206d696e7420746f20746865207a65726f2061646472657360008201527f7300000000000000000000000000000000000000000000000000000000000000602082015250565b600060443d1015615e9d57615f20565b615ea56154ce565b60043d036004823e80513d602482011167ffffffffffffffff82111715615ecd575050615f20565b808201805167ffffffffffffffff811115615eeb5750505050615f20565b80602083010160043d038501811115615f08575050505050615f20565b615f178260200185018661584a565b82955050505050505b90565b615f2c81615762565b8114615f3757600080fd5b50565b615f4381615774565b8114615f4e57600080fd5b50565b615f5a81615780565b8114615f6557600080fd5b50565b615f71816157cc565b8114615f7c57600080fd5b5056fea2646970667358221220aa9a8f547835bcb291445cc93bb134ece0658d29dc292edab083d6886b051fcb64736f6c63430008030033",
  "linkReferences": {},
  "deployedLinkReferences": {}
}